{
  "_format": "hh-sol-artifact-1",
  "contractName": "NFT",
  "sourceName": "contracts/NFT.sol",
  "abi": [
    {
      "inputs": [],
      "stateMutability": "nonpayable",
      "type": "constructor"
    },
    {
      "anonymous": false,
      "inputs": [
        {
          "indexed": true,
          "internalType": "address",
          "name": "owner",
          "type": "address"
        },
        {
          "indexed": true,
          "internalType": "address",
          "name": "approved",
          "type": "address"
        },
        {
          "indexed": true,
          "internalType": "uint256",
          "name": "tokenId",
          "type": "uint256"
        }
      ],
      "name": "Approval",
      "type": "event"
    },
    {
      "anonymous": false,
      "inputs": [
        {
          "indexed": true,
          "internalType": "address",
          "name": "owner",
          "type": "address"
        },
        {
          "indexed": true,
          "internalType": "address",
          "name": "operator",
          "type": "address"
        },
        {
          "indexed": false,
          "internalType": "bool",
          "name": "approved",
          "type": "bool"
        }
      ],
      "name": "ApprovalForAll",
      "type": "event"
    },
    {
      "anonymous": false,
      "inputs": [
        {
          "indexed": true,
          "internalType": "address",
          "name": "previousOwner",
          "type": "address"
        },
        {
          "indexed": true,
          "internalType": "address",
          "name": "newOwner",
          "type": "address"
        }
      ],
      "name": "OwnershipTransferred",
      "type": "event"
    },
    {
      "anonymous": false,
      "inputs": [
        {
          "indexed": true,
          "internalType": "address",
          "name": "from",
          "type": "address"
        },
        {
          "indexed": true,
          "internalType": "address",
          "name": "to",
          "type": "address"
        },
        {
          "indexed": true,
          "internalType": "uint256",
          "name": "tokenId",
          "type": "uint256"
        }
      ],
      "name": "Transfer",
      "type": "event"
    },
    {
      "inputs": [
        {
          "internalType": "address",
          "name": "to",
          "type": "address"
        },
        {
          "internalType": "uint256",
          "name": "tokenId",
          "type": "uint256"
        }
      ],
      "name": "approve",
      "outputs": [],
      "stateMutability": "nonpayable",
      "type": "function"
    },
    {
      "inputs": [
        {
          "internalType": "address",
          "name": "owner",
          "type": "address"
        }
      ],
      "name": "balanceOf",
      "outputs": [
        {
          "internalType": "uint256",
          "name": "",
          "type": "uint256"
        }
      ],
      "stateMutability": "view",
      "type": "function"
    },
    {
      "inputs": [
        {
          "internalType": "uint256",
          "name": "tokenId",
          "type": "uint256"
        }
      ],
      "name": "getApproved",
      "outputs": [
        {
          "internalType": "address",
          "name": "",
          "type": "address"
        }
      ],
      "stateMutability": "view",
      "type": "function"
    },
    {
      "inputs": [
        {
          "internalType": "address",
          "name": "owner",
          "type": "address"
        },
        {
          "internalType": "address",
          "name": "operator",
          "type": "address"
        }
      ],
      "name": "isApprovedForAll",
      "outputs": [
        {
          "internalType": "bool",
          "name": "",
          "type": "bool"
        }
      ],
      "stateMutability": "view",
      "type": "function"
    },
    {
      "inputs": [],
      "name": "name",
      "outputs": [
        {
          "internalType": "string",
          "name": "",
          "type": "string"
        }
      ],
      "stateMutability": "view",
      "type": "function"
    },
    {
      "inputs": [],
      "name": "owner",
      "outputs": [
        {
          "internalType": "address",
          "name": "",
          "type": "address"
        }
      ],
      "stateMutability": "view",
      "type": "function"
    },
    {
      "inputs": [
        {
          "internalType": "uint256",
          "name": "tokenId",
          "type": "uint256"
        }
      ],
      "name": "ownerOf",
      "outputs": [
        {
          "internalType": "address",
          "name": "",
          "type": "address"
        }
      ],
      "stateMutability": "view",
      "type": "function"
    },
    {
      "inputs": [],
      "name": "renounceOwnership",
      "outputs": [],
      "stateMutability": "nonpayable",
      "type": "function"
    },
    {
      "inputs": [
        {
          "internalType": "string",
          "name": "uri",
          "type": "string"
        },
        {
          "internalType": "string",
          "name": "_serialNumber",
          "type": "string"
        }
      ],
      "name": "safeMint",
      "outputs": [],
      "stateMutability": "nonpayable",
      "type": "function"
    },
    {
      "inputs": [
        {
          "internalType": "address",
          "name": "from",
          "type": "address"
        },
        {
          "internalType": "address",
          "name": "to",
          "type": "address"
        },
        {
          "internalType": "uint256",
          "name": "tokenId",
          "type": "uint256"
        }
      ],
      "name": "safeTransferFrom",
      "outputs": [],
      "stateMutability": "nonpayable",
      "type": "function"
    },
    {
      "inputs": [
        {
          "internalType": "address",
          "name": "from",
          "type": "address"
        },
        {
          "internalType": "address",
          "name": "to",
          "type": "address"
        },
        {
          "internalType": "uint256",
          "name": "tokenId",
          "type": "uint256"
        },
        {
          "internalType": "bytes",
          "name": "data",
          "type": "bytes"
        }
      ],
      "name": "safeTransferFrom",
      "outputs": [],
      "stateMutability": "nonpayable",
      "type": "function"
    },
    {
      "inputs": [
        {
          "internalType": "string",
          "name": "",
          "type": "string"
        }
      ],
      "name": "serialNumberToTokenId",
      "outputs": [
        {
          "internalType": "uint256",
          "name": "",
          "type": "uint256"
        }
      ],
      "stateMutability": "view",
      "type": "function"
    },
    {
      "inputs": [
        {
          "internalType": "address",
          "name": "operator",
          "type": "address"
        },
        {
          "internalType": "bool",
          "name": "approved",
          "type": "bool"
        }
      ],
      "name": "setApprovalForAll",
      "outputs": [],
      "stateMutability": "nonpayable",
      "type": "function"
    },
    {
      "inputs": [
        {
          "internalType": "bytes4",
          "name": "interfaceId",
          "type": "bytes4"
        }
      ],
      "name": "supportsInterface",
      "outputs": [
        {
          "internalType": "bool",
          "name": "",
          "type": "bool"
        }
      ],
      "stateMutability": "view",
      "type": "function"
    },
    {
      "inputs": [],
      "name": "symbol",
      "outputs": [
        {
          "internalType": "string",
          "name": "",
          "type": "string"
        }
      ],
      "stateMutability": "view",
      "type": "function"
    },
    {
      "inputs": [
        {
          "internalType": "uint256",
          "name": "index",
          "type": "uint256"
        }
      ],
      "name": "tokenByIndex",
      "outputs": [
        {
          "internalType": "uint256",
          "name": "",
          "type": "uint256"
        }
      ],
      "stateMutability": "view",
      "type": "function"
    },
    {
      "inputs": [
        {
          "internalType": "address",
          "name": "owner",
          "type": "address"
        },
        {
          "internalType": "uint256",
          "name": "index",
          "type": "uint256"
        }
      ],
      "name": "tokenOfOwnerByIndex",
      "outputs": [
        {
          "internalType": "uint256",
          "name": "",
          "type": "uint256"
        }
      ],
      "stateMutability": "view",
      "type": "function"
    },
    {
      "inputs": [
        {
          "internalType": "uint256",
          "name": "tokenId",
          "type": "uint256"
        }
      ],
      "name": "tokenURI",
      "outputs": [
        {
          "internalType": "string",
          "name": "",
          "type": "string"
        }
      ],
      "stateMutability": "view",
      "type": "function"
    },
    {
      "inputs": [],
      "name": "totalSupply",
      "outputs": [
        {
          "internalType": "uint256",
          "name": "",
          "type": "uint256"
        }
      ],
      "stateMutability": "view",
      "type": "function"
    },
    {
      "inputs": [
        {
          "internalType": "address",
          "name": "from",
          "type": "address"
        },
        {
          "internalType": "address",
          "name": "to",
          "type": "address"
        },
        {
          "internalType": "uint256",
          "name": "tokenId",
          "type": "uint256"
        }
      ],
      "name": "transferFrom",
      "outputs": [],
      "stateMutability": "nonpayable",
      "type": "function"
    },
    {
      "inputs": [
        {
          "internalType": "address",
          "name": "newOwner",
          "type": "address"
        }
      ],
      "name": "transferOwnership",
      "outputs": [],
      "stateMutability": "nonpayable",
      "type": "function"
    }
  ],
  "bytecode": "0x60806040523480156200001157600080fd5b506040518060400160405280600381526020017f4e465400000000000000000000000000000000000000000000000000000000008152506040518060400160405280600381526020017f4e46540000000000000000000000000000000000000000000000000000000000815250816000908051906020019062000096929190620001a6565b508060019080519060200190620000af929190620001a6565b505050620000d2620000c6620000d860201b60201c565b620000e060201b60201c565b620002bb565b600033905090565b6000600b60009054906101000a900473ffffffffffffffffffffffffffffffffffffffff16905081600b60006101000a81548173ffffffffffffffffffffffffffffffffffffffff021916908373ffffffffffffffffffffffffffffffffffffffff1602179055508173ffffffffffffffffffffffffffffffffffffffff168173ffffffffffffffffffffffffffffffffffffffff167f8be0079c531659141344cd1fd0a4f28419497f9722a3daafe3b4186f6b6457e060405160405180910390a35050565b828054620001b49062000256565b90600052602060002090601f016020900481019282620001d8576000855562000224565b82601f10620001f357805160ff191683800117855562000224565b8280016001018555821562000224579182015b828111156200022357825182559160200191906001019062000206565b5b50905062000233919062000237565b5090565b5b808211156200025257600081600090555060010162000238565b5090565b600060028204905060018216806200026f57607f821691505b602082108114156200028657620002856200028c565b5b50919050565b7f4e487b7100000000000000000000000000000000000000000000000000000000600052602260045260246000fd5b6134af80620002cb6000396000f3fe608060405234801561001057600080fd5b50600436106101375760003560e01c80636352211e116100b8578063a22cb4651161007c578063a22cb4651461034e578063b88d4fde1461036a578063bb033cd414610386578063c87b56dd146103b6578063e985e9c5146103e6578063f2fde38b1461041657610137565b80636352211e146102a857806370a08231146102d8578063715018a6146103085780638da5cb5b1461031257806395d89b411461033057610137565b806323b872dd116100ff57806323b872dd146101f45780632f745c591461021057806342842e0e146102405780634f6ccce71461025c5780634fa1f7ae1461028c57610137565b806301ffc9a71461013c57806306fdde031461016c578063081812fc1461018a578063095ea7b3146101ba57806318160ddd146101d6575b600080fd5b610156600480360381019061015191906125cb565b610432565b6040516101639190612e07565b60405180910390f35b610174610444565b6040516101819190612e22565b60405180910390f35b6101a4600480360381019061019f91906126ca565b6104d6565b6040516101b19190612da0565b60405180910390f35b6101d460048036038101906101cf919061258f565b61051c565b005b6101de610634565b6040516101eb9190613044565b60405180910390f35b61020e60048036038101906102099190612489565b610641565b005b61022a6004803603810190610225919061258f565b6106a1565b6040516102379190613044565b60405180910390f35b61025a60048036038101906102559190612489565b610746565b005b610276600480360381019061027191906126ca565b610766565b6040516102839190613044565b60405180910390f35b6102a660048036038101906102a1919061265e565b6107fd565b005b6102c260048036038101906102bd91906126ca565b610851565b6040516102cf9190612da0565b60405180910390f35b6102f260048036038101906102ed9190612424565b610903565b6040516102ff9190613044565b60405180910390f35b6103106109bb565b005b61031a6109cf565b6040516103279190612da0565b60405180910390f35b6103386109f9565b6040516103459190612e22565b60405180910390f35b61036860048036038101906103639190612553565b610a8b565b005b610384600480360381019061037f91906124d8565b610aa1565b005b6103a0600480360381019061039b919061261d565b610b03565b6040516103ad9190613044565b60405180910390f35b6103d060048036038101906103cb91906126ca565b610b31565b6040516103dd9190612e22565b60405180910390f35b61040060048036038101906103fb919061244d565b610b43565b60405161040d9190612e07565b60405180910390f35b610430600480360381019061042b9190612424565b610bd7565b005b600061043d82610c5b565b9050919050565b606060008054610453906132a4565b80601f016020809104026020016040519081016040528092919081815260200182805461047f906132a4565b80156104cc5780601f106104a1576101008083540402835291602001916104cc565b820191906000526020600020905b8154815290600101906020018083116104af57829003601f168201915b5050505050905090565b60006104e182610cd5565b6004600083815260200190815260200160002060009054906101000a900473ffffffffffffffffffffffffffffffffffffffff169050919050565b600061052782610851565b90508073ffffffffffffffffffffffffffffffffffffffff168373ffffffffffffffffffffffffffffffffffffffff161415610598576040517f08c379a000000000000000000000000000000000000000000000000000000000815260040161058f90612fe4565b60405180910390fd5b8073ffffffffffffffffffffffffffffffffffffffff166105b7610d20565b73ffffffffffffffffffffffffffffffffffffffff1614806105e657506105e5816105e0610d20565b610b43565b5b610625576040517f08c379a000000000000000000000000000000000000000000000000000000000815260040161061c90612f64565b60405180910390fd5b61062f8383610d28565b505050565b6000600880549050905090565b61065261064c610d20565b82610de1565b610691576040517f08c379a000000000000000000000000000000000000000000000000000000000815260040161068890613024565b60405180910390fd5b61069c838383610e76565b505050565b60006106ac83610903565b82106106ed576040517f08c379a00000000000000000000000000000000000000000000000000000000081526004016106e490612e44565b60405180910390fd5b600660008473ffffffffffffffffffffffffffffffffffffffff1673ffffffffffffffffffffffffffffffffffffffff168152602001908152602001600020600083815260200190815260200160002054905092915050565b61076183838360405180602001604052806000815250610aa1565b505050565b6000610770610634565b82106107b1576040517f08c379a00000000000000000000000000000000000000000000000000000000081526004016107a890613004565b60405180910390fd5b600882815481106107eb577f4e487b7100000000000000000000000000000000000000000000000000000000600052603260045260246000fd5b90600052602060002001549050919050565b6000610809600d6110dd565b9050610815600d6110eb565b61081f3382611101565b610829818461111f565b80600c8360405161083a9190612d65565b908152602001604051809103902081905550505050565b6000806002600084815260200190815260200160002060009054906101000a900473ffffffffffffffffffffffffffffffffffffffff169050600073ffffffffffffffffffffffffffffffffffffffff168173ffffffffffffffffffffffffffffffffffffffff1614156108fa576040517f08c379a00000000000000000000000000000000000000000000000000000000081526004016108f190612fc4565b60405180910390fd5b80915050919050565b60008073ffffffffffffffffffffffffffffffffffffffff168273ffffffffffffffffffffffffffffffffffffffff161415610974576040517f08c379a000000000000000000000000000000000000000000000000000000000815260040161096b90612f24565b60405180910390fd5b600360008373ffffffffffffffffffffffffffffffffffffffff1673ffffffffffffffffffffffffffffffffffffffff168152602001908152602001600020549050919050565b6109c3611193565b6109cd6000611211565b565b6000600b60009054906101000a900473ffffffffffffffffffffffffffffffffffffffff16905090565b606060018054610a08906132a4565b80601f0160208091040260200160405190810160405280929190818152602001828054610a34906132a4565b8015610a815780601f10610a5657610100808354040283529160200191610a81565b820191906000526020600020905b815481529060010190602001808311610a6457829003601f168201915b5050505050905090565b610a9d610a96610d20565b83836112d7565b5050565b610ab2610aac610d20565b83610de1565b610af1576040517f08c379a0000000000000000000000000000000000000000000000000000000008152600401610ae890613024565b60405180910390fd5b610afd84848484611444565b50505050565b600c818051602081018201805184825260208301602085012081835280955050505050506000915090505481565b6060610b3c826114a0565b9050919050565b6000600560008473ffffffffffffffffffffffffffffffffffffffff1673ffffffffffffffffffffffffffffffffffffffff16815260200190815260200160002060008373ffffffffffffffffffffffffffffffffffffffff1673ffffffffffffffffffffffffffffffffffffffff16815260200190815260200160002060009054906101000a900460ff16905092915050565b610bdf611193565b600073ffffffffffffffffffffffffffffffffffffffff168173ffffffffffffffffffffffffffffffffffffffff161415610c4f576040517f08c379a0000000000000000000000000000000000000000000000000000000008152600401610c4690612e84565b60405180910390fd5b610c5881611211565b50565b60007f780e9d63000000000000000000000000000000000000000000000000000000007bffffffffffffffffffffffffffffffffffffffffffffffffffffffff1916827bffffffffffffffffffffffffffffffffffffffffffffffffffffffff19161480610cce5750610ccd826115b3565b5b9050919050565b610cde81611695565b610d1d576040517f08c379a0000000000000000000000000000000000000000000000000000000008152600401610d1490612fc4565b60405180910390fd5b50565b600033905090565b816004600083815260200190815260200160002060006101000a81548173ffffffffffffffffffffffffffffffffffffffff021916908373ffffffffffffffffffffffffffffffffffffffff160217905550808273ffffffffffffffffffffffffffffffffffffffff16610d9b83610851565b73ffffffffffffffffffffffffffffffffffffffff167f8c5be1e5ebec7d5bd14f71427d1e84f3dd0314c0f7b2291e5b200ac8c7c3b92560405160405180910390a45050565b600080610ded83610851565b90508073ffffffffffffffffffffffffffffffffffffffff168473ffffffffffffffffffffffffffffffffffffffff161480610e2f5750610e2e8185610b43565b5b80610e6d57508373ffffffffffffffffffffffffffffffffffffffff16610e55846104d6565b73ffffffffffffffffffffffffffffffffffffffff16145b91505092915050565b8273ffffffffffffffffffffffffffffffffffffffff16610e9682610851565b73ffffffffffffffffffffffffffffffffffffffff1614610eec576040517f08c379a0000000000000000000000000000000000000000000000000000000008152600401610ee390612ea4565b60405180910390fd5b600073ffffffffffffffffffffffffffffffffffffffff168273ffffffffffffffffffffffffffffffffffffffff161415610f5c576040517f08c379a0000000000000000000000000000000000000000000000000000000008152600401610f5390612ee4565b60405180910390fd5b610f67838383611701565b610f72600082610d28565b6001600360008573ffffffffffffffffffffffffffffffffffffffff1673ffffffffffffffffffffffffffffffffffffffff1681526020019081526020016000206000828254610fc291906131ba565b925050819055506001600360008473ffffffffffffffffffffffffffffffffffffffff1673ffffffffffffffffffffffffffffffffffffffff16815260200190815260200160002060008282546110199190613133565b92505081905550816002600083815260200190815260200160002060006101000a81548173ffffffffffffffffffffffffffffffffffffffff021916908373ffffffffffffffffffffffffffffffffffffffff160217905550808273ffffffffffffffffffffffffffffffffffffffff168473ffffffffffffffffffffffffffffffffffffffff167fddf252ad1be2c89b69c2b068fc378daa952ba7f163c4a11628f55a4df523b3ef60405160405180910390a46110d8838383611711565b505050565b600081600001549050919050565b6001816000016000828254019250508190555050565b61111b828260405180602001604052806000815250611716565b5050565b61112882611695565b611167576040517f08c379a000000000000000000000000000000000000000000000000000000000815260040161115e90612f44565b60405180910390fd5b80600a6000848152602001908152602001600020908051906020019061118e929190612248565b505050565b61119b610d20565b73ffffffffffffffffffffffffffffffffffffffff166111b96109cf565b73ffffffffffffffffffffffffffffffffffffffff161461120f576040517f08c379a000000000000000000000000000000000000000000000000000000000815260040161120690612fa4565b60405180910390fd5b565b6000600b60009054906101000a900473ffffffffffffffffffffffffffffffffffffffff16905081600b60006101000a81548173ffffffffffffffffffffffffffffffffffffffff021916908373ffffffffffffffffffffffffffffffffffffffff1602179055508173ffffffffffffffffffffffffffffffffffffffff168173ffffffffffffffffffffffffffffffffffffffff167f8be0079c531659141344cd1fd0a4f28419497f9722a3daafe3b4186f6b6457e060405160405180910390a35050565b8173ffffffffffffffffffffffffffffffffffffffff168373ffffffffffffffffffffffffffffffffffffffff161415611346576040517f08c379a000000000000000000000000000000000000000000000000000000000815260040161133d90612f04565b60405180910390fd5b80600560008573ffffffffffffffffffffffffffffffffffffffff1673ffffffffffffffffffffffffffffffffffffffff16815260200190815260200160002060008473ffffffffffffffffffffffffffffffffffffffff1673ffffffffffffffffffffffffffffffffffffffff16815260200190815260200160002060006101000a81548160ff0219169083151502179055508173ffffffffffffffffffffffffffffffffffffffff168373ffffffffffffffffffffffffffffffffffffffff167f17307eab39ab6107e8899845ad3d59bd9653f200f220920489ca2b5937696c31836040516114379190612e07565b60405180910390a3505050565b61144f848484610e76565b61145b84848484611771565b61149a576040517f08c379a000000000000000000000000000000000000000000000000000000000815260040161149190612e64565b60405180910390fd5b50505050565b60606114ab82610cd5565b6000600a600084815260200190815260200160002080546114cb906132a4565b80601f01602080910402602001604051908101604052809291908181526020018280546114f7906132a4565b80156115445780601f1061151957610100808354040283529160200191611544565b820191906000526020600020905b81548152906001019060200180831161152757829003601f168201915b505050505090506000611555611908565b905060008151141561156b5781925050506115ae565b6000825111156115a0578082604051602001611588929190612d7c565b604051602081830303815290604052925050506115ae565b6115a98461191f565b925050505b919050565b60007f80ac58cd000000000000000000000000000000000000000000000000000000007bffffffffffffffffffffffffffffffffffffffffffffffffffffffff1916827bffffffffffffffffffffffffffffffffffffffffffffffffffffffff1916148061167e57507f5b5e139f000000000000000000000000000000000000000000000000000000007bffffffffffffffffffffffffffffffffffffffffffffffffffffffff1916827bffffffffffffffffffffffffffffffffffffffffffffffffffffffff1916145b8061168e575061168d82611987565b5b9050919050565b60008073ffffffffffffffffffffffffffffffffffffffff166002600084815260200190815260200160002060009054906101000a900473ffffffffffffffffffffffffffffffffffffffff1673ffffffffffffffffffffffffffffffffffffffff1614159050919050565b61170c8383836119f1565b505050565b505050565b6117208383611b05565b61172d6000848484611771565b61176c576040517f08c379a000000000000000000000000000000000000000000000000000000000815260040161176390612e64565b60405180910390fd5b505050565b60006117928473ffffffffffffffffffffffffffffffffffffffff16611cdf565b156118fb578373ffffffffffffffffffffffffffffffffffffffff1663150b7a026117bb610d20565b8786866040518563ffffffff1660e01b81526004016117dd9493929190612dbb565b602060405180830381600087803b1580156117f757600080fd5b505af192505050801561182857506040513d601f19601f8201168201806040525081019061182591906125f4565b60015b6118ab573d8060008114611858576040519150601f19603f3d011682016040523d82523d6000602084013e61185d565b606091505b506000815114156118a3576040517f08c379a000000000000000000000000000000000000000000000000000000000815260040161189a90612e64565b60405180910390fd5b805181602001fd5b63150b7a0260e01b7bffffffffffffffffffffffffffffffffffffffffffffffffffffffff1916817bffffffffffffffffffffffffffffffffffffffffffffffffffffffff191614915050611900565b600190505b949350505050565b606060405180602001604052806000815250905090565b606061192a82610cd5565b6000611934611908565b90506000815111611954576040518060200160405280600081525061197f565b8061195e84611d1e565b60405160200161196f929190612d7c565b6040516020818303038152906040525b915050919050565b60007f01ffc9a7000000000000000000000000000000000000000000000000000000007bffffffffffffffffffffffffffffffffffffffffffffffffffffffff1916827bffffffffffffffffffffffffffffffffffffffffffffffffffffffff1916149050919050565b6119fc838383611ecb565b600073ffffffffffffffffffffffffffffffffffffffff168373ffffffffffffffffffffffffffffffffffffffff161415611a3f57611a3a81611ed0565b611a7e565b8173ffffffffffffffffffffffffffffffffffffffff168373ffffffffffffffffffffffffffffffffffffffff1614611a7d57611a7c8382611f19565b5b5b600073ffffffffffffffffffffffffffffffffffffffff168273ffffffffffffffffffffffffffffffffffffffff161415611ac157611abc81612086565b611b00565b8273ffffffffffffffffffffffffffffffffffffffff168273ffffffffffffffffffffffffffffffffffffffff1614611aff57611afe82826121c9565b5b5b505050565b600073ffffffffffffffffffffffffffffffffffffffff168273ffffffffffffffffffffffffffffffffffffffff161415611b75576040517f08c379a0000000000000000000000000000000000000000000000000000000008152600401611b6c90612f84565b60405180910390fd5b611b7e81611695565b15611bbe576040517f08c379a0000000000000000000000000000000000000000000000000000000008152600401611bb590612ec4565b60405180910390fd5b611bca60008383611701565b6001600360008473ffffffffffffffffffffffffffffffffffffffff1673ffffffffffffffffffffffffffffffffffffffff1681526020019081526020016000206000828254611c1a9190613133565b92505081905550816002600083815260200190815260200160002060006101000a81548173ffffffffffffffffffffffffffffffffffffffff021916908373ffffffffffffffffffffffffffffffffffffffff160217905550808273ffffffffffffffffffffffffffffffffffffffff16600073ffffffffffffffffffffffffffffffffffffffff167fddf252ad1be2c89b69c2b068fc378daa952ba7f163c4a11628f55a4df523b3ef60405160405180910390a4611cdb60008383611711565b5050565b6000808273ffffffffffffffffffffffffffffffffffffffff16803b806020016040519081016040528181526000908060200190933c51119050919050565b60606000821415611d66576040518060400160405280600181526020017f30000000000000000000000000000000000000000000000000000000000000008152509050611ec6565b600082905060005b60008214611d98578080611d81906132d6565b915050600a82611d919190613189565b9150611d6e565b60008167ffffffffffffffff811115611dda577f4e487b7100000000000000000000000000000000000000000000000000000000600052604160045260246000fd5b6040519080825280601f01601f191660200182016040528015611e0c5781602001600182028036833780820191505090505b5090505b60008514611ebf57600182611e2591906131ba565b9150600a85611e34919061331f565b6030611e409190613133565b60f81b818381518110611e7c577f4e487b7100000000000000000000000000000000000000000000000000000000600052603260045260246000fd5b60200101907effffffffffffffffffffffffffffffffffffffffffffffffffffffffffffff1916908160001a905350600a85611eb89190613189565b9450611e10565b8093505050505b919050565b505050565b6008805490506009600083815260200190815260200160002081905550600881908060018154018082558091505060019003906000526020600020016000909190919091505550565b60006001611f2684610903565b611f3091906131ba565b9050600060076000848152602001908152602001600020549050818114612015576000600660008673ffffffffffffffffffffffffffffffffffffffff1673ffffffffffffffffffffffffffffffffffffffff168152602001908152602001600020600084815260200190815260200160002054905080600660008773ffffffffffffffffffffffffffffffffffffffff1673ffffffffffffffffffffffffffffffffffffffff168152602001908152602001600020600084815260200190815260200160002081905550816007600083815260200190815260200160002081905550505b6007600084815260200190815260200160002060009055600660008573ffffffffffffffffffffffffffffffffffffffff1673ffffffffffffffffffffffffffffffffffffffff16815260200190815260200160002060008381526020019081526020016000206000905550505050565b6000600160088054905061209a91906131ba565b90506000600960008481526020019081526020016000205490506000600883815481106120f0577f4e487b7100000000000000000000000000000000000000000000000000000000600052603260045260246000fd5b906000526020600020015490508060088381548110612138577f4e487b7100000000000000000000000000000000000000000000000000000000600052603260045260246000fd5b9060005260206000200181905550816009600083815260200190815260200160002081905550600960008581526020019081526020016000206000905560088054806121ad577f4e487b7100000000000000000000000000000000000000000000000000000000600052603160045260246000fd5b6001900381819060005260206000200160009055905550505050565b60006121d483610903565b905081600660008573ffffffffffffffffffffffffffffffffffffffff1673ffffffffffffffffffffffffffffffffffffffff168152602001908152602001600020600083815260200190815260200160002081905550806007600084815260200190815260200160002081905550505050565b828054612254906132a4565b90600052602060002090601f01602090048101928261227657600085556122bd565b82601f1061228f57805160ff19168380011785556122bd565b828001600101855582156122bd579182015b828111156122bc5782518255916020019190600101906122a1565b5b5090506122ca91906122ce565b5090565b5b808211156122e75760008160009055506001016122cf565b5090565b60006122fe6122f984613090565b61305f565b90508281526020810184848401111561231657600080fd5b612321848285613262565b509392505050565b600061233c612337846130c0565b61305f565b90508281526020810184848401111561235457600080fd5b61235f848285613262565b509392505050565b6000813590506123768161341d565b92915050565b60008135905061238b81613434565b92915050565b6000813590506123a08161344b565b92915050565b6000815190506123b58161344b565b92915050565b600082601f8301126123cc57600080fd5b81356123dc8482602086016122eb565b91505092915050565b600082601f8301126123f657600080fd5b8135612406848260208601612329565b91505092915050565b60008135905061241e81613462565b92915050565b60006020828403121561243657600080fd5b600061244484828501612367565b91505092915050565b6000806040838503121561246057600080fd5b600061246e85828601612367565b925050602061247f85828601612367565b9150509250929050565b60008060006060848603121561249e57600080fd5b60006124ac86828701612367565b93505060206124bd86828701612367565b92505060406124ce8682870161240f565b9150509250925092565b600080600080608085870312156124ee57600080fd5b60006124fc87828801612367565b945050602061250d87828801612367565b935050604061251e8782880161240f565b925050606085013567ffffffffffffffff81111561253b57600080fd5b612547878288016123bb565b91505092959194509250565b6000806040838503121561256657600080fd5b600061257485828601612367565b92505060206125858582860161237c565b9150509250929050565b600080604083850312156125a257600080fd5b60006125b085828601612367565b92505060206125c18582860161240f565b9150509250929050565b6000602082840312156125dd57600080fd5b60006125eb84828501612391565b91505092915050565b60006020828403121561260657600080fd5b6000612614848285016123a6565b91505092915050565b60006020828403121561262f57600080fd5b600082013567ffffffffffffffff81111561264957600080fd5b612655848285016123e5565b91505092915050565b6000806040838503121561267157600080fd5b600083013567ffffffffffffffff81111561268b57600080fd5b612697858286016123e5565b925050602083013567ffffffffffffffff8111156126b457600080fd5b6126c0858286016123e5565b9150509250929050565b6000602082840312156126dc57600080fd5b60006126ea8482850161240f565b91505092915050565b6126fc816131ee565b82525050565b61270b81613200565b82525050565b600061271c826130f0565b6127268185613106565b9350612736818560208601613271565b61273f8161340c565b840191505092915050565b6000612755826130fb565b61275f8185613117565b935061276f818560208601613271565b6127788161340c565b840191505092915050565b600061278e826130fb565b6127988185613128565b93506127a8818560208601613271565b80840191505092915050565b60006127c1602b83613117565b91507f455243373231456e756d657261626c653a206f776e657220696e646578206f7560008301527f74206f6620626f756e64730000000000000000000000000000000000000000006020830152604082019050919050565b6000612827603283613117565b91507f4552433732313a207472616e7366657220746f206e6f6e20455243373231526560008301527f63656976657220696d706c656d656e74657200000000000000000000000000006020830152604082019050919050565b600061288d602683613117565b91507f4f776e61626c653a206e6577206f776e657220697320746865207a65726f206160008301527f64647265737300000000000000000000000000000000000000000000000000006020830152604082019050919050565b60006128f3602583613117565b91507f4552433732313a207472616e736665722066726f6d20696e636f72726563742060008301527f6f776e65720000000000000000000000000000000000000000000000000000006020830152604082019050919050565b6000612959601c83613117565b91507f4552433732313a20746f6b656e20616c7265616479206d696e746564000000006000830152602082019050919050565b6000612999602483613117565b91507f4552433732313a207472616e7366657220746f20746865207a65726f2061646460008301527f72657373000000000000000000000000000000000000000000000000000000006020830152604082019050919050565b60006129ff601983613117565b91507f4552433732313a20617070726f766520746f2063616c6c6572000000000000006000830152602082019050919050565b6000612a3f602983613117565b91507f4552433732313a2061646472657373207a65726f206973206e6f74206120766160008301527f6c6964206f776e657200000000000000000000000000000000000000000000006020830152604082019050919050565b6000612aa5602e83613117565b91507f45524337323155524953746f726167653a2055524920736574206f66206e6f6e60008301527f6578697374656e7420746f6b656e0000000000000000000000000000000000006020830152604082019050919050565b6000612b0b603e83613117565b91507f4552433732313a20617070726f76652063616c6c6572206973206e6f7420746f60008301527f6b656e206f776e6572206e6f7220617070726f76656420666f7220616c6c00006020830152604082019050919050565b6000612b71602083613117565b91507f4552433732313a206d696e7420746f20746865207a65726f20616464726573736000830152602082019050919050565b6000612bb1602083613117565b91507f4f776e61626c653a2063616c6c6572206973206e6f7420746865206f776e65726000830152602082019050919050565b6000612bf1601883613117565b91507f4552433732313a20696e76616c696420746f6b656e20494400000000000000006000830152602082019050919050565b6000612c31602183613117565b91507f4552433732313a20617070726f76616c20746f2063757272656e74206f776e6560008301527f72000000000000000000000000000000000000000000000000000000000000006020830152604082019050919050565b6000612c97602c83613117565b91507f455243373231456e756d657261626c653a20676c6f62616c20696e646578206f60008301527f7574206f6620626f756e647300000000000000000000000000000000000000006020830152604082019050919050565b6000612cfd602e83613117565b91507f4552433732313a2063616c6c6572206973206e6f7420746f6b656e206f776e6560008301527f72206e6f7220617070726f7665640000000000000000000000000000000000006020830152604082019050919050565b612d5f81613258565b82525050565b6000612d718284612783565b915081905092915050565b6000612d888285612783565b9150612d948284612783565b91508190509392505050565b6000602082019050612db560008301846126f3565b92915050565b6000608082019050612dd060008301876126f3565b612ddd60208301866126f3565b612dea6040830185612d56565b8181036060830152612dfc8184612711565b905095945050505050565b6000602082019050612e1c6000830184612702565b92915050565b60006020820190508181036000830152612e3c818461274a565b905092915050565b60006020820190508181036000830152612e5d816127b4565b9050919050565b60006020820190508181036000830152612e7d8161281a565b9050919050565b60006020820190508181036000830152612e9d81612880565b9050919050565b60006020820190508181036000830152612ebd816128e6565b9050919050565b60006020820190508181036000830152612edd8161294c565b9050919050565b60006020820190508181036000830152612efd8161298c565b9050919050565b60006020820190508181036000830152612f1d816129f2565b9050919050565b60006020820190508181036000830152612f3d81612a32565b9050919050565b60006020820190508181036000830152612f5d81612a98565b9050919050565b60006020820190508181036000830152612f7d81612afe565b9050919050565b60006020820190508181036000830152612f9d81612b64565b9050919050565b60006020820190508181036000830152612fbd81612ba4565b9050919050565b60006020820190508181036000830152612fdd81612be4565b9050919050565b60006020820190508181036000830152612ffd81612c24565b9050919050565b6000602082019050818103600083015261301d81612c8a565b9050919050565b6000602082019050818103600083015261303d81612cf0565b9050919050565b60006020820190506130596000830184612d56565b92915050565b6000604051905081810181811067ffffffffffffffff82111715613086576130856133dd565b5b8060405250919050565b600067ffffffffffffffff8211156130ab576130aa6133dd565b5b601f19601f8301169050602081019050919050565b600067ffffffffffffffff8211156130db576130da6133dd565b5b601f19601f8301169050602081019050919050565b600081519050919050565b600081519050919050565b600082825260208201905092915050565b600082825260208201905092915050565b600081905092915050565b600061313e82613258565b915061314983613258565b9250827fffffffffffffffffffffffffffffffffffffffffffffffffffffffffffffffff0382111561317e5761317d613350565b5b828201905092915050565b600061319482613258565b915061319f83613258565b9250826131af576131ae61337f565b5b828204905092915050565b60006131c582613258565b91506131d083613258565b9250828210156131e3576131e2613350565b5b828203905092915050565b60006131f982613238565b9050919050565b60008115159050919050565b60007fffffffff0000000000000000000000000000000000000000000000000000000082169050919050565b600073ffffffffffffffffffffffffffffffffffffffff82169050919050565b6000819050919050565b82818337600083830152505050565b60005b8381101561328f578082015181840152602081019050613274565b8381111561329e576000848401525b50505050565b600060028204905060018216806132bc57607f821691505b602082108114156132d0576132cf6133ae565b5b50919050565b60006132e182613258565b91507fffffffffffffffffffffffffffffffffffffffffffffffffffffffffffffffff82141561331457613313613350565b5b600182019050919050565b600061332a82613258565b915061333583613258565b9250826133455761334461337f565b5b828206905092915050565b7f4e487b7100000000000000000000000000000000000000000000000000000000600052601160045260246000fd5b7f4e487b7100000000000000000000000000000000000000000000000000000000600052601260045260246000fd5b7f4e487b7100000000000000000000000000000000000000000000000000000000600052602260045260246000fd5b7f4e487b7100000000000000000000000000000000000000000000000000000000600052604160045260246000fd5b6000601f19601f8301169050919050565b613426816131ee565b811461343157600080fd5b50565b61343d81613200565b811461344857600080fd5b50565b6134548161320c565b811461345f57600080fd5b50565b61346b81613258565b811461347657600080fd5b5056fea2646970667358221220842f226d60e545dba874353696dd98fd15cd712469b5ed754a21d9a432af163864736f6c63430008000033",
  "linkReferences": {},
  "deployedLinkReferences": {}
}